{
  "contractName": "Blat",
  "abi": [
    {
      "inputs": [],
      "stateMutability": "nonpayable",
      "type": "constructor"
    },
    {
      "anonymous": false,
      "inputs": [
        {
          "indexed": true,
          "internalType": "address",
          "name": "sender",
          "type": "address"
        },
        {
          "indexed": true,
          "internalType": "address",
          "name": "recipient",
          "type": "address"
        },
        {
          "indexed": false,
          "internalType": "string",
          "name": "content",
          "type": "string"
        }
      ],
      "name": "MessageSent",
      "type": "event"
    },
    {
      "anonymous": false,
      "inputs": [
        {
          "indexed": true,
          "internalType": "address",
          "name": "user",
          "type": "address"
        },
        {
          "indexed": false,
          "internalType": "bool",
          "name": "isSubscribed",
          "type": "bool"
        }
      ],
      "name": "SubscriptionChanged",
      "type": "event"
    },
    {
      "anonymous": false,
      "inputs": [
        {
          "indexed": true,
          "internalType": "address",
          "name": "user",
          "type": "address"
        },
        {
          "indexed": false,
          "internalType": "string",
          "name": "username",
          "type": "string"
        },
        {
          "indexed": false,
          "internalType": "string",
          "name": "email",
          "type": "string"
        }
      ],
      "name": "UserRegistered",
      "type": "event"
    },
    {
      "inputs": [],
      "name": "messageLimit",
      "outputs": [
        {
          "internalType": "uint256",
          "name": "",
          "type": "uint256"
        }
      ],
      "stateMutability": "view",
      "type": "function",
      "constant": true
    },
    {
      "inputs": [],
      "name": "owner",
      "outputs": [
        {
          "internalType": "address",
          "name": "",
          "type": "address"
        }
      ],
      "stateMutability": "view",
      "type": "function",
      "constant": true
    },
    {
      "inputs": [],
      "name": "subscriptionFee",
      "outputs": [
        {
          "internalType": "uint256",
          "name": "",
          "type": "uint256"
        }
      ],
      "stateMutability": "view",
      "type": "function",
      "constant": true
    },
    {
      "inputs": [
        {
          "internalType": "uint256",
          "name": "",
          "type": "uint256"
        }
      ],
      "name": "subscriptionPlans",
      "outputs": [
        {
          "internalType": "uint256",
          "name": "id",
          "type": "uint256"
        },
        {
          "internalType": "string",
          "name": "name",
          "type": "string"
        },
        {
          "internalType": "uint256",
          "name": "price",
          "type": "uint256"
        },
        {
          "internalType": "uint256",
          "name": "duration",
          "type": "uint256"
        },
        {
          "internalType": "uint256",
          "name": "startDate",
          "type": "uint256"
        },
        {
          "internalType": "uint256",
          "name": "endDate",
          "type": "uint256"
        },
        {
          "internalType": "uint256",
          "name": "maxMessages",
          "type": "uint256"
        }
      ],
      "stateMutability": "view",
      "type": "function",
      "constant": true
    },
    {
      "inputs": [
        {
          "internalType": "address",
          "name": "",
          "type": "address"
        },
        {
          "internalType": "uint256",
          "name": "",
          "type": "uint256"
        }
      ],
      "name": "userMessages",
      "outputs": [
        {
          "internalType": "address",
          "name": "sender",
          "type": "address"
        },
        {
          "internalType": "address",
          "name": "recipient",
          "type": "address"
        },
        {
          "internalType": "string",
          "name": "content",
          "type": "string"
        },
        {
          "internalType": "uint256",
          "name": "timestamp",
          "type": "uint256"
        }
      ],
      "stateMutability": "view",
      "type": "function",
      "constant": true
    },
    {
      "inputs": [
        {
          "internalType": "address",
          "name": "",
          "type": "address"
        }
      ],
      "name": "userProfiles",
      "outputs": [
        {
          "internalType": "string",
          "name": "username",
          "type": "string"
        },
        {
          "internalType": "string",
          "name": "email",
          "type": "string"
        },
        {
          "internalType": "bool",
          "name": "isSubscribed",
          "type": "bool"
        },
        {
          "internalType": "string",
          "name": "profilePicture",
          "type": "string"
        },
        {
          "internalType": "string",
          "name": "bio",
          "type": "string"
        }
      ],
      "stateMutability": "view",
      "type": "function",
      "constant": true
    },
    {
      "stateMutability": "payable",
      "type": "receive",
      "payable": true
    },
    {
      "inputs": [
        {
          "internalType": "string",
          "name": "_username",
          "type": "string"
        },
        {
          "internalType": "string",
          "name": "_email",
          "type": "string"
        }
      ],
      "name": "registerUser",
      "outputs": [],
      "stateMutability": "nonpayable",
      "type": "function"
    },
    {
      "inputs": [
        {
          "internalType": "uint256",
          "name": "_planId",
          "type": "uint256"
        }
      ],
      "name": "subscribeToPlan",
      "outputs": [],
      "stateMutability": "payable",
      "type": "function",
      "payable": true
    },
    {
      "inputs": [
        {
          "internalType": "address",
          "name": "_recipient",
          "type": "address"
        },
        {
          "internalType": "string",
          "name": "_content",
          "type": "string"
        }
      ],
      "name": "sendMessage",
      "outputs": [],
      "stateMutability": "nonpayable",
      "type": "function"
    },
    {
      "inputs": [
        {
          "internalType": "address",
          "name": "_user",
          "type": "address"
        }
      ],
      "name": "getMessageCount",
      "outputs": [
        {
          "internalType": "uint256",
          "name": "",
          "type": "uint256"
        }
      ],
      "stateMutability": "view",
      "type": "function",
      "constant": true
    },
    {
      "inputs": [],
      "name": "withdrawBalance",
      "outputs": [],
      "stateMutability": "nonpayable",
      "type": "function"
    },
    {
      "inputs": [
        {
          "internalType": "uint256",
          "name": "_id",
          "type": "uint256"
        },
        {
          "internalType": "string",
          "name": "_name",
          "type": "string"
        },
        {
          "internalType": "uint256",
          "name": "_price",
          "type": "uint256"
        },
        {
          "internalType": "uint256",
          "name": "_duration",
          "type": "uint256"
        },
        {
          "internalType": "string[]",
          "name": "_features",
          "type": "string[]"
        },
        {
          "internalType": "uint256",
          "name": "_startDate",
          "type": "uint256"
        },
        {
          "internalType": "uint256",
          "name": "_endDate",
          "type": "uint256"
        },
        {
          "internalType": "uint256",
          "name": "_maxMessages",
          "type": "uint256"
        }
      ],
      "name": "addSubscriptionPlan",
      "outputs": [],
      "stateMutability": "nonpayable",
      "type": "function"
    },
    {
      "inputs": [
        {
          "internalType": "uint256",
          "name": "_newFee",
          "type": "uint256"
        }
      ],
      "name": "updateSubscriptionFee",
      "outputs": [],
      "stateMutability": "nonpayable",
      "type": "function"
    },
    {
      "inputs": [
        {
          "internalType": "uint256",
          "name": "_newLimit",
          "type": "uint256"
        }
      ],
      "name": "updateMessageLimit",
      "outputs": [],
      "stateMutability": "nonpayable",
      "type": "function"
    }
  ],
  "bytecode": "0x608060405234801561001057600080fd5b50336000806101000a81548173ffffffffffffffffffffffffffffffffffffffff021916908373ffffffffffffffffffffffffffffffffffffffff1602179055506103e86001819055506064600281905550611f8b806100716000396000f3fe6080604052600436106100fe576000357c0100000000000000000000000000000000000000000000000000000000900480638da5cb5b1161009c578063a655c75b11610076578063a655c75b146102e1578063b97ff114146102fd578063d7363ce714610326578063de6f24bb1461036357610105565b80638da5cb5b1461024d5780639428cda314610278578063a4a52741146102b857610105565b80632bf34c70116100d85780632bf34c70146101a157806331fa2284146101cc578063332d56d7146101f55780635fd8c7101461023657610105565b80630aa0a1751461010a5780631d2e4afd14610135578063284c7f351461015e57610105565b3661010557005b600080fd5b34801561011657600080fd5b5061011f61038c565b60405161012c9190611cc2565b60405180910390f35b34801561014157600080fd5b5061015c6004803603810190610157919061158f565b610392565b005b34801561016a57600080fd5b50610185600480360381019061018091906115fb565b61061d565b6040516101989796959493929190611cdd565b60405180910390f35b3480156101ad57600080fd5b506101b66106f7565b6040516101c39190611cc2565b60405180910390f35b3480156101d857600080fd5b506101f360048036038101906101ee91906115fb565b6106fd565b005b34801561020157600080fd5b5061021c600480360381019061021791906114d6565b610795565b60405161022d959493929190611b13565b60405180910390f35b34801561024257600080fd5b5061024b6109f8565b005b34801561025957600080fd5b50610262610ae6565b60405161026f9190611a38565b60405180910390f35b34801561028457600080fd5b5061029f600480360381019061029a9190611553565b610b0a565b6040516102af9493929190611a53565b60405180910390f35b3480156102c457600080fd5b506102df60048036038101906102da9190611624565b610c1f565b005b6102fb60048036038101906102f691906115fb565b610d06565b005b34801561030957600080fd5b50610324600480360381019061031f91906115fb565b610e88565b005b34801561033257600080fd5b5061034d600480360381019061034891906114d6565b610f20565b60405161035a9190611cc2565b60405180910390f35b34801561036f57600080fd5b5061038a600480360381019061038591906114ff565b610f6c565b005b60015481565b60008251116103d6576040517f08c379a00000000000000000000000000000000000000000000000000000000081526004016103cd90611b82565b60405180910390fd5b600081511161041a576040517f08c379a000000000000000000000000000000000000000000000000000000000815260040161041190611c42565b60405180910390fd5b6000600360003373ffffffffffffffffffffffffffffffffffffffff1673ffffffffffffffffffffffffffffffffffffffff168152602001908152602001600020600001805461046990611e86565b9050146104ab576040517f08c379a00000000000000000000000000000000000000000000000000000000081526004016104a290611c02565b60405180910390fd5b6040518060a0016040528083815260200182815260200160001515815260200160405180602001604052806000815250815260200160405180602001604052806000815250815250600360003373ffffffffffffffffffffffffffffffffffffffff1673ffffffffffffffffffffffffffffffffffffffff168152602001908152602001600020600082015181600001908051906020019061054e929190611256565b50602082015181600101908051906020019061056b929190611256565b5060408201518160020160006101000a81548160ff02191690831515021790555060608201518160030190805190602001906105a8929190611256565b5060808201518160040190805190602001906105c5929190611256565b509050503373ffffffffffffffffffffffffffffffffffffffff167f92822564bab8864c3a47b34e8d23fbce5c46234eb5da261f94087b995ac0f33b8383604051610611929190611adc565b60405180910390a25050565b6004818154811061062d57600080fd5b906000526020600020906008020160009150905080600001549080600101805461065690611e86565b80601f016020809104026020016040519081016040528092919081815260200182805461068290611e86565b80156106cf5780601f106106a4576101008083540402835291602001916106cf565b820191906000526020600020905b8154815290600101906020018083116106b257829003601f168201915b5050505050908060020154908060030154908060050154908060060154908060070154905087565b60025481565b60008054906101000a900473ffffffffffffffffffffffffffffffffffffffff1673ffffffffffffffffffffffffffffffffffffffff163373ffffffffffffffffffffffffffffffffffffffff161461078b576040517f08c379a000000000000000000000000000000000000000000000000000000000815260040161078290611c62565b60405180910390fd5b8060028190555050565b60036020528060005260406000206000915090508060000180546107b890611e86565b80601f01602080910402602001604051908101604052809291908181526020018280546107e490611e86565b80156108315780601f1061080657610100808354040283529160200191610831565b820191906000526020600020905b81548152906001019060200180831161081457829003601f168201915b50505050509080600101805461084690611e86565b80601f016020809104026020016040519081016040528092919081815260200182805461087290611e86565b80156108bf5780601f10610894576101008083540402835291602001916108bf565b820191906000526020600020905b8154815290600101906020018083116108a257829003601f168201915b5050505050908060020160009054906101000a900460ff16908060030180546108e790611e86565b80601f016020809104026020016040519081016040528092919081815260200182805461091390611e86565b80156109605780601f1061093557610100808354040283529160200191610960565b820191906000526020600020905b81548152906001019060200180831161094357829003601f168201915b50505050509080600401805461097590611e86565b80601f01602080910402602001604051908101604052809291908181526020018280546109a190611e86565b80156109ee5780601f106109c3576101008083540402835291602001916109ee565b820191906000526020600020905b8154815290600101906020018083116109d157829003601f168201915b5050505050905085565b60008054906101000a900473ffffffffffffffffffffffffffffffffffffffff1673ffffffffffffffffffffffffffffffffffffffff163373ffffffffffffffffffffffffffffffffffffffff1614610a86576040517f08c379a0000000000000000000000000000000000000000000000000000000008152600401610a7d90611bc2565b60405180910390fd5b3373ffffffffffffffffffffffffffffffffffffffff166108fc3073ffffffffffffffffffffffffffffffffffffffff16319081150290604051600060405180830381858888f19350505050158015610ae3573d6000803e3d6000fd5b50565b60008054906101000a900473ffffffffffffffffffffffffffffffffffffffff1681565b60056020528160005260406000208181548110610b2657600080fd5b9060005260206000209060040201600091509150508060000160009054906101000a900473ffffffffffffffffffffffffffffffffffffffff16908060010160009054906101000a900473ffffffffffffffffffffffffffffffffffffffff1690806002018054610b9690611e86565b80601f0160208091040260200160405190810160405280929190818152602001828054610bc290611e86565b8015610c0f5780601f10610be457610100808354040283529160200191610c0f565b820191906000526020600020905b815481529060010190602001808311610bf257829003601f168201915b5050505050908060030154905084565b60046040518061010001604052808a8152602001898152602001888152602001878152602001868152602001858152602001848152602001838152509080600181540180825580915050600190039060005260206000209060080201600090919091909150600082015181600001556020820151816001019080519060200190610caa929190611256565b5060408201518160020155606082015181600301556080820151816004019080519060200190610cdb9291906112dc565b5060a0820151816005015560c0820151816006015560e0820151816007015550505050505050505050565b6004805490508110610d4d576040517f08c379a0000000000000000000000000000000000000000000000000000000008152600401610d4490611ca2565b60405180910390fd5b60048181548110610d87577f4e487b7100000000000000000000000000000000000000000000000000000000600052603260045260246000fd5b906000526020600020906008020160020154341015610ddb576040517f08c379a0000000000000000000000000000000000000000000000000000000008152600401610dd290611be2565b60405180910390fd5b6001600360003373ffffffffffffffffffffffffffffffffffffffff1673ffffffffffffffffffffffffffffffffffffffff16815260200190815260200160002060020160006101000a81548160ff0219169083151502179055503373ffffffffffffffffffffffffffffffffffffffff167f955cda259267da9742262378b76e39779bd39281fb772b20bf30bee187db06956001604051610e7d9190611a9f565b60405180910390a250565b60008054906101000a900473ffffffffffffffffffffffffffffffffffffffff1673ffffffffffffffffffffffffffffffffffffffff163373ffffffffffffffffffffffffffffffffffffffff1614610f16576040517f08c379a0000000000000000000000000000000000000000000000000000000008152600401610f0d90611ba2565b60405180910390fd5b8060018190555050565b6000600560008373ffffffffffffffffffffffffffffffffffffffff1673ffffffffffffffffffffffffffffffffffffffff168152602001908152602001600020805490509050919050565b600360003373ffffffffffffffffffffffffffffffffffffffff1673ffffffffffffffffffffffffffffffffffffffff16815260200190815260200160002060020160009054906101000a900460ff16610ffb576040517f08c379a0000000000000000000000000000000000000000000000000000000008152600401610ff290611c82565b60405180910390fd5b600254600560003373ffffffffffffffffffffffffffffffffffffffff1673ffffffffffffffffffffffffffffffffffffffff1681526020019081526020016000208054905010611081576040517f08c379a000000000000000000000000000000000000000000000000000000000815260040161107890611c22565b60405180910390fd5b600560003373ffffffffffffffffffffffffffffffffffffffff1673ffffffffffffffffffffffffffffffffffffffff16815260200190815260200160002060405180608001604052803373ffffffffffffffffffffffffffffffffffffffff1681526020018473ffffffffffffffffffffffffffffffffffffffff16815260200183815260200142815250908060018154018082558091505060019003906000526020600020906004020160009091909190915060008201518160000160006101000a81548173ffffffffffffffffffffffffffffffffffffffff021916908373ffffffffffffffffffffffffffffffffffffffff16021790555060208201518160010160006101000a81548173ffffffffffffffffffffffffffffffffffffffff021916908373ffffffffffffffffffffffffffffffffffffffff16021790555060408201518160020190805190602001906111e0929190611256565b506060820151816003015550508173ffffffffffffffffffffffffffffffffffffffff163373ffffffffffffffffffffffffffffffffffffffff167fe2cf7446a11cbcd14cd99ea3a1bb77fb7653a64f4064d660140b5100d001e13c8360405161124a9190611aba565b60405180910390a35050565b82805461126290611e86565b90600052602060002090601f01602090048101928261128457600085556112cb565b82601f1061129d57805160ff19168380011785556112cb565b828001600101855582156112cb579182015b828111156112ca5782518255916020019190600101906112af565b5b5090506112d8919061133c565b5090565b82805482825590600052602060002090810192821561132b579160200282015b8281111561132a57825182908051906020019061131a929190611256565b50916020019190600101906112fc565b5b5090506113389190611359565b5090565b5b8082111561135557600081600090555060010161133d565b5090565b5b808211156113795760008181611370919061137d565b5060010161135a565b5090565b50805461138990611e86565b6000825580601f1061139b57506113ba565b601f0160209004906000526020600020908101906113b9919061133c565b5b50565b60006113d06113cb84611d84565b611d53565b9050808382526020820190508260005b8581101561141057813585016113f68882611497565b8452602084019350602083019250506001810190506113e0565b5050509392505050565b600061142d61142884611db0565b611d53565b90508281526020810184848401111561144557600080fd5b611450848285611e44565b509392505050565b60008135905061146781611f27565b92915050565b600082601f83011261147e57600080fd5b813561148e8482602086016113bd565b91505092915050565b600082601f8301126114a857600080fd5b81356114b884826020860161141a565b91505092915050565b6000813590506114d081611f3e565b92915050565b6000602082840312156114e857600080fd5b60006114f684828501611458565b91505092915050565b6000806040838503121561151257600080fd5b600061152085828601611458565b925050602083013567ffffffffffffffff81111561153d57600080fd5b61154985828601611497565b9150509250929050565b6000806040838503121561156657600080fd5b600061157485828601611458565b9250506020611585858286016114c1565b9150509250929050565b600080604083850312156115a257600080fd5b600083013567ffffffffffffffff8111156115bc57600080fd5b6115c885828601611497565b925050602083013567ffffffffffffffff8111156115e557600080fd5b6115f185828601611497565b9150509250929050565b60006020828403121561160d57600080fd5b600061161b848285016114c1565b91505092915050565b600080600080600080600080610100898b03121561164157600080fd5b600061164f8b828c016114c1565b985050602089013567ffffffffffffffff81111561166c57600080fd5b6116788b828c01611497565b97505060406116898b828c016114c1565b965050606061169a8b828c016114c1565b955050608089013567ffffffffffffffff8111156116b757600080fd5b6116c38b828c0161146d565b94505060a06116d48b828c016114c1565b93505060c06116e58b828c016114c1565b92505060e06116f68b828c016114c1565b9150509295985092959890939650565b61170f81611dfc565b82525050565b61171e81611e0e565b82525050565b600061172f82611de0565b6117398185611deb565b9350611749818560208601611e53565b61175281611f16565b840191505092915050565b600061176a601883611deb565b91507f557365726e616d652063616e6e6f7420626520656d70747900000000000000006000830152602082019050919050565b60006117aa602683611deb565b91507f4f6e6c79206f776e65722063616e20757064617465207375627363726970746960008301527f6f6e2066656500000000000000000000000000000000000000000000000000006020830152604082019050919050565b6000611810601783611deb565b91507f4f6e6c79206f776e65722063616e2077697468647261770000000000000000006000830152602082019050919050565b6000611850601283611deb565b91507f496e73756666696369656e742066756e647300000000000000000000000000006000830152602082019050919050565b6000611890601783611deb565b91507f5573657220616c726561647920726567697374657265640000000000000000006000830152602082019050919050565b60006118d0601683611deb565b91507f4d657373616765206c696d6974206578636565646564000000000000000000006000830152602082019050919050565b6000611910601583611deb565b91507f456d61696c2063616e6e6f7420626520656d70747900000000000000000000006000830152602082019050919050565b6000611950602383611deb565b91507f4f6e6c79206f776e65722063616e20757064617465206d657373616765206c6960008301527f6d697400000000000000000000000000000000000000000000000000000000006020830152604082019050919050565b60006119b6601683611deb565b91507f55736572206973206e6f742073756273637269626564000000000000000000006000830152602082019050919050565b60006119f6600f83611deb565b91507f496e76616c696420706c616e20494400000000000000000000000000000000006000830152602082019050919050565b611a3281611e3a565b82525050565b6000602082019050611a4d6000830184611706565b92915050565b6000608082019050611a686000830187611706565b611a756020830186611706565b8181036040830152611a878185611724565b9050611a966060830184611a29565b95945050505050565b6000602082019050611ab46000830184611715565b92915050565b60006020820190508181036000830152611ad48184611724565b905092915050565b60006040820190508181036000830152611af68185611724565b90508181036020830152611b0a8184611724565b90509392505050565b600060a0820190508181036000830152611b2d8188611724565b90508181036020830152611b418187611724565b9050611b506040830186611715565b8181036060830152611b628185611724565b90508181036080830152611b768184611724565b90509695505050505050565b60006020820190508181036000830152611b9b8161175d565b9050919050565b60006020820190508181036000830152611bbb8161179d565b9050919050565b60006020820190508181036000830152611bdb81611803565b9050919050565b60006020820190508181036000830152611bfb81611843565b9050919050565b60006020820190508181036000830152611c1b81611883565b9050919050565b60006020820190508181036000830152611c3b816118c3565b9050919050565b60006020820190508181036000830152611c5b81611903565b9050919050565b60006020820190508181036000830152611c7b81611943565b9050919050565b60006020820190508181036000830152611c9b816119a9565b9050919050565b60006020820190508181036000830152611cbb816119e9565b9050919050565b6000602082019050611cd76000830184611a29565b92915050565b600060e082019050611cf2600083018a611a29565b8181036020830152611d048189611724565b9050611d136040830188611a29565b611d206060830187611a29565b611d2d6080830186611a29565b611d3a60a0830185611a29565b611d4760c0830184611a29565b98975050505050505050565b6000604051905081810181811067ffffffffffffffff82111715611d7a57611d79611ee7565b5b8060405250919050565b600067ffffffffffffffff821115611d9f57611d9e611ee7565b5b602082029050602081019050919050565b600067ffffffffffffffff821115611dcb57611dca611ee7565b5b601f19601f8301169050602081019050919050565b600081519050919050565b600082825260208201905092915050565b6000611e0782611e1a565b9050919050565b60008115159050919050565b600073ffffffffffffffffffffffffffffffffffffffff82169050919050565b6000819050919050565b82818337600083830152505050565b60005b83811015611e71578082015181840152602081019050611e56565b83811115611e80576000848401525b50505050565b60006002820490506001821680611e9e57607f821691505b60208210811415611eb257611eb1611eb8565b5b50919050565b7f4e487b7100000000000000000000000000000000000000000000000000000000600052602260045260246000fd5b7f4e487b7100000000000000000000000000000000000000000000000000000000600052604160045260246000fd5b6000601f19601f8301169050919050565b611f3081611dfc565b8114611f3b57600080fd5b50565b611f4781611e3a565b8114611f5257600080fd5b5056fea26469706673582212204df401a5e4b04e28d2530c6a18411cf8965119e25334bd7d1714754d19068fa264736f6c63430008000033",
  "immutableReferences": {},
  "source": "// // SPDX-License-Identifier: MIT\n// pragma solidity ^0.8.0;\n\n// contract HelloWorld {\n//     string public greeting;\n\n//     constructor() {\n//         greeting = \"Hello, World!\";\n//     }\n\n//     function getGreeting() public view returns (string memory) {\n//         return greeting;\n//     }\n// }\n\n// SPDX-License-Identifier: MIT\n\n// SPDX-License-Identifier: MIT\npragma solidity ^0.8.0;\n\ncontract Blat {\n    // State variables\n    address public owner; // Address of the contract owner\n    uint256 public subscriptionFee; // Fee for subscription\n    uint256 public messageLimit; // Limit of messages per subscription period\n\n    // Structs\n    struct UserProfile {\n        string username; // Username of the user\n        string email; // Email of the user\n        bool isSubscribed; // Flag indicating if the user is subscribed\n        // Additional user profile fields\n        string profilePicture;\n        string bio;\n    }\n\n    struct SubscriptionPlan {\n        uint256 id; // ID of the subscription plan\n        string name; // Name of the subscription plan\n        uint256 price; // Price of the subscription plan\n        uint256 duration; // Duration of the subscription plan in days\n        string[] features; // Features of the subscription plan\n        // Additional subscription plan details\n        uint256 startDate;\n        uint256 endDate;\n        uint256 maxMessages;\n    }\n\n    struct Message {\n        address sender; // Address of the sender\n        address recipient; // Address of the recipient\n        string content; // Content of the message\n        uint256 timestamp; // Timestamp of when the message was sent\n    }\n\n    // Mappings\n    mapping(address => UserProfile) public userProfiles; // Mapping of user addresses to their profiles\n    SubscriptionPlan[] public subscriptionPlans; // Array of subscription plans\n    mapping(address => Message[]) public userMessages; // Mapping of user addresses to their messages\n\n    // Events\n    event UserRegistered(address indexed user, string username, string email); // Event emitted when a new user is registered\n    event SubscriptionChanged(address indexed user, bool isSubscribed); // Event emitted when a user's subscription status changes\n    event MessageSent(address indexed sender, address indexed recipient, string content); // Event emitted when a message is sent\n\n    // Constructor\n    constructor() {\n        owner = msg.sender; // Set the contract owner to the address that deployed the contract\n        subscriptionFee = 0.000000000000001 ether; // Example subscription fee in ether\n        messageLimit = 100; // Example message limit per subscription period\n    }\n\n    // Function to register a new user\n    function registerUser(string memory _username, string memory _email) external {\n        // Check if username and email are not empty and user is not already registered\n        require(bytes(_username).length > 0, \"Username cannot be empty\");\n        require(bytes(_email).length > 0, \"Email cannot be empty\");\n        require(bytes(userProfiles[msg.sender].username).length == 0, \"User already registered\");\n\n        // Create user profile and emit UserRegistered event\n        userProfiles[msg.sender] = UserProfile(_username, _email, false, \"\", \"\");\n        emit UserRegistered(msg.sender, _username, _email);\n    }\n\n    // Function to subscribe to a plan\n    function subscribeToPlan(uint256 _planId) external payable {\n        // Check if plan ID is valid and user has sent enough funds\n        require(_planId < subscriptionPlans.length, \"Invalid plan ID\");\n        require(msg.value >= subscriptionPlans[_planId].price, \"Insufficient funds\");\n\n        // Update user's subscription status and emit SubscriptionChanged event\n        userProfiles[msg.sender].isSubscribed = true;\n        emit SubscriptionChanged(msg.sender, true);\n    }\n\n    // Function to send a message\n    function sendMessage(address _recipient, string memory _content) external {\n        // Check if user is subscribed and message limit is not exceeded\n        require(userProfiles[msg.sender].isSubscribed, \"User is not subscribed\");\n        require(userMessages[msg.sender].length < messageLimit, \"Message limit exceeded\");\n\n        // Add message to user's message list and emit MessageSent event\n        userMessages[msg.sender].push(Message(msg.sender, _recipient, _content, block.timestamp));\n        emit MessageSent(msg.sender, _recipient, _content);\n    }\n\n    // Function to get user's message count\n    function getMessageCount(address _user) external view returns (uint256) {\n        return userMessages[_user].length; // Return the number of messages for the specified user\n    }\n\n    // Function to withdraw contract balance\n    function withdrawBalance() external {\n        require(msg.sender == owner, \"Only owner can withdraw\"); // Ensure only the owner can withdraw\n        payable(msg.sender).transfer(address(this).balance); // Transfer the contract's balance to the owner\n    }\n\n    // Fallback function to receive ether\n    receive() external payable {}\n\n    // Function to add a new subscription plan\n    function addSubscriptionPlan(\n        uint256 _id,\n        string memory _name,\n        uint256 _price,\n        uint256 _duration,\n        string[] memory _features,\n        uint256 _startDate,\n        uint256 _endDate,\n        uint256 _maxMessages\n    ) external {\n        subscriptionPlans.push(SubscriptionPlan(_id, _name, _price, _duration, _features, _startDate, _endDate, _maxMessages)); // Add the new subscription plan to the array\n    }\n\n    // Function to update subscription fee by owner\n    function updateSubscriptionFee(uint256 _newFee) external {\n        require(msg.sender == owner, \"Only owner can update subscription fee\"); // Ensure only the owner can update subscription fee\n        subscriptionFee = _newFee;\n    }\n\n    // Function to update message limit by owner\n    function updateMessageLimit(uint256 _newLimit) external {\n        require(msg.sender == owner, \"Only owner can update message limit\"); // Ensure only the owner can update message limit\n        messageLimit = _newLimit;\n    }\n}\n\n\n",
  "sourcePath": "/media/shivendra323/34A0FBEBA0FBB20A/project2024/blockchain/Blat/client/contracts/blat.sol",
  "compiler": {
    "name": "solc",
    "version": "0.8.0+commit.c7dfd78e.Emscripten.clang"
  },
  "schemaVersion": "3.4.16",
  "updatedAt": "2024-04-15T12:19:25.222Z",
  "networkType": "ethereum",
  "devdoc": {
    "kind": "dev",
    "methods": {},
    "version": 1
  },
  "userdoc": {
    "kind": "user",
    "methods": {},
    "version": 1
  }
}