{
  "contractName": "Blat",
  "abi": [
    {
      "anonymous": false,
      "inputs": [
        {
          "indexed": true,
          "internalType": "address",
          "name": "user",
          "type": "address"
        },
        {
          "indexed": false,
          "internalType": "string",
          "name": "channel",
          "type": "string"
        }
      ],
      "name": "LatestFeedRequested",
      "type": "event"
    },
    {
      "anonymous": false,
      "inputs": [
        {
          "indexed": true,
          "internalType": "address",
          "name": "user",
          "type": "address"
        },
        {
          "indexed": false,
          "internalType": "string",
          "name": "email",
          "type": "string"
        }
      ],
      "name": "UserRegistered",
      "type": "event"
    },
    {
      "anonymous": false,
      "inputs": [
        {
          "indexed": true,
          "internalType": "address",
          "name": "user",
          "type": "address"
        },
        {
          "indexed": false,
          "internalType": "string",
          "name": "channel",
          "type": "string"
        }
      ],
      "name": "UserSubscribed",
      "type": "event"
    },
    {
      "inputs": [
        {
          "internalType": "address",
          "name": "",
          "type": "address"
        }
      ],
      "name": "users",
      "outputs": [
        {
          "internalType": "string",
          "name": "email",
          "type": "string"
        },
        {
          "internalType": "bool",
          "name": "isRegistered",
          "type": "bool"
        }
      ],
      "stateMutability": "view",
      "type": "function",
      "constant": true
    },
    {
      "inputs": [
        {
          "internalType": "string",
          "name": "_email",
          "type": "string"
        }
      ],
      "name": "register",
      "outputs": [],
      "stateMutability": "nonpayable",
      "type": "function"
    },
    {
      "inputs": [
        {
          "internalType": "string",
          "name": "_channel",
          "type": "string"
        }
      ],
      "name": "subscribe",
      "outputs": [],
      "stateMutability": "nonpayable",
      "type": "function"
    },
    {
      "inputs": [
        {
          "internalType": "string",
          "name": "_channel",
          "type": "string"
        }
      ],
      "name": "requestLatestFeed",
      "outputs": [],
      "stateMutability": "nonpayable",
      "type": "function"
    }
  ],
  "bytecode": "0x608060405234801561001057600080fd5b50610b9c806100206000396000f3fe608060405234801561001057600080fd5b5060043610610069576000357c010000000000000000000000000000000000000000000000000000000090048063507e78881461006e5780636bb8ebe31461008a578063a87430ba146100a6578063f2c298be146100d7575b600080fd5b61008860048036038101906100839190610763565b6100f3565b005b6100a4600480360381019061009f9190610763565b610248565b005b6100c060048036038101906100bb919061073a565b6103d1565b6040516100ce929190610916565b60405180910390f35b6100f160048036038101906100ec9190610763565b61048a565b005b6000803373ffffffffffffffffffffffffffffffffffffffff1673ffffffffffffffffffffffffffffffffffffffff16815260200190815260200160002060010160009054906101000a900460ff16610181576040517f08c379a000000000000000000000000000000000000000000000000000000000815260040161017890610946565b60405180910390fd5b60016000803373ffffffffffffffffffffffffffffffffffffffff1673ffffffffffffffffffffffffffffffffffffffff168152602001908152602001600020600201826040516101d291906108dd565b908152602001604051809103902060006101000a81548160ff0219169083151502179055503373ffffffffffffffffffffffffffffffffffffffff167f642162d369dbc5392afe2baf21e916679912e9feacc0643866422c138069d9f38260405161023d91906108f4565b60405180910390a250565b6000803373ffffffffffffffffffffffffffffffffffffffff1673ffffffffffffffffffffffffffffffffffffffff16815260200190815260200160002060010160009054906101000a900460ff166102d6576040517f08c379a00000000000000000000000000000000000000000000000000000000081526004016102cd90610946565b60405180910390fd5b6000803373ffffffffffffffffffffffffffffffffffffffff1673ffffffffffffffffffffffffffffffffffffffff1681526020019081526020016000206002018160405161032591906108dd565b908152602001604051809103902060009054906101000a900460ff16610380576040517f08c379a000000000000000000000000000000000000000000000000000000000815260040161037790610986565b60405180910390fd5b3373ffffffffffffffffffffffffffffffffffffffff167f1597b0cabd24ff6c7b22e077376b6ac0dec98f13a8ce53f610353fd77c037175826040516103c691906108f4565b60405180910390a250565b60006020528060005260406000206000915090508060000180546103f490610aae565b80601f016020809104026020016040519081016040528092919081815260200182805461042090610aae565b801561046d5780601f106104425761010080835404028352916020019161046d565b820191906000526020600020905b81548152906001019060200180831161045057829003601f168201915b5050505050908060010160009054906101000a900460ff16905082565b6000803373ffffffffffffffffffffffffffffffffffffffff1673ffffffffffffffffffffffffffffffffffffffff16815260200190815260200160002060010160009054906101000a900460ff1615610519576040517f08c379a000000000000000000000000000000000000000000000000000000000815260040161051090610966565b60405180910390fd5b806000803373ffffffffffffffffffffffffffffffffffffffff1673ffffffffffffffffffffffffffffffffffffffff168152602001908152602001600020600001908051906020019061056e92919061061a565b5060016000803373ffffffffffffffffffffffffffffffffffffffff1673ffffffffffffffffffffffffffffffffffffffff16815260200190815260200160002060010160006101000a81548160ff0219169083151502179055503373ffffffffffffffffffffffffffffffffffffffff167f48cac28ad4dc618e15f4c2dd5e97751182f166de97b25618318b2112aa951a2f8260405161060f91906108f4565b60405180910390a250565b82805461062690610aae565b90600052602060002090601f016020900481019282610648576000855561068f565b82601f1061066157805160ff191683800117855561068f565b8280016001018555821561068f579182015b8281111561068e578251825591602001919060010190610673565b5b50905061069c91906106a0565b5090565b5b808211156106b95760008160009055506001016106a1565b5090565b60006106d06106cb846109d7565b6109a6565b9050828152602081018484840111156106e857600080fd5b6106f3848285610a6c565b509392505050565b60008135905061070a81610b4f565b92915050565b600082601f83011261072157600080fd5b81356107318482602086016106bd565b91505092915050565b60006020828403121561074c57600080fd5b600061075a848285016106fb565b91505092915050565b60006020828403121561077557600080fd5b600082013567ffffffffffffffff81111561078f57600080fd5b61079b84828501610710565b91505092915050565b6107ad81610a40565b82525050565b60006107be82610a07565b6107c88185610a12565b93506107d8818560208601610a7b565b6107e181610b3e565b840191505092915050565b60006107f782610a07565b6108018185610a23565b9350610811818560208601610a7b565b80840191505092915050565b600061082a601383610a12565b91507f55736572206e6f742072656769737465726564000000000000000000000000006000830152602082019050919050565b600061086a601783610a12565b91507f5573657220616c726561647920726567697374657265640000000000000000006000830152602082019050919050565b60006108aa601e83610a12565b91507f55736572206e6f74207375627363726962656420746f206368616e6e656c00006000830152602082019050919050565b60006108e982846107ec565b915081905092915050565b6000602082019050818103600083015261090e81846107b3565b905092915050565b6000604082019050818103600083015261093081856107b3565b905061093f60208301846107a4565b9392505050565b6000602082019050818103600083015261095f8161081d565b9050919050565b6000602082019050818103600083015261097f8161085d565b9050919050565b6000602082019050818103600083015261099f8161089d565b9050919050565b6000604051905081810181811067ffffffffffffffff821117156109cd576109cc610b0f565b5b8060405250919050565b600067ffffffffffffffff8211156109f2576109f1610b0f565b5b601f19601f8301169050602081019050919050565b600081519050919050565b600082825260208201905092915050565b600081905092915050565b6000610a3982610a4c565b9050919050565b60008115159050919050565b600073ffffffffffffffffffffffffffffffffffffffff82169050919050565b82818337600083830152505050565b60005b83811015610a99578082015181840152602081019050610a7e565b83811115610aa8576000848401525b50505050565b60006002820490506001821680610ac657607f821691505b60208210811415610ada57610ad9610ae0565b5b50919050565b7f4e487b7100000000000000000000000000000000000000000000000000000000600052602260045260246000fd5b7f4e487b7100000000000000000000000000000000000000000000000000000000600052604160045260246000fd5b6000601f19601f8301169050919050565b610b5881610a2e565b8114610b6357600080fd5b5056fea264697066735822122060e0e4d3754edc66d2420c71a157cc73ced230bdfbb4dd46a39bfebe4709715c64736f6c63430008000033",
  "immutableReferences": {},
  "source": "// SPDX-License-Identifier: MIT\n// pragma solidity ^0.8.0;\n\n// contract HelloWorld {\n//     string public greeting;\n\n//     constructor() {\n//         greeting = \"Hello, World!\";\n//     }\n\n//     function getGreeting() public view returns (string memory) {\n//         return greeting;\n//     }\n// }\n\npragma solidity ^0.8.0;\n\ncontract Blat {\n    struct User {\n        string email;\n        bool isRegistered;\n        mapping(string => bool) subscribedChannels;\n    }\n\n    mapping(address => User) public users;\n\n    event UserRegistered(address indexed user, string email);\n    event UserSubscribed(address indexed user, string channel);\n    event LatestFeedRequested(address indexed user, string channel);\n\n    function register(string memory _email) external {\n        require(!users[msg.sender].isRegistered, \"User already registered\");\n        users[msg.sender].email = _email;\n        users[msg.sender].isRegistered = true;\n        emit UserRegistered(msg.sender, _email);\n    }\n\n    function subscribe(string memory _channel) external {\n        require(users[msg.sender].isRegistered, \"User not registered\");\n        users[msg.sender].subscribedChannels[_channel] = true;\n        emit UserSubscribed(msg.sender, _channel);\n    }\n\n    function requestLatestFeed(string memory _channel) external {\n        require(users[msg.sender].isRegistered, \"User not registered\");\n        require(\n            users[msg.sender].subscribedChannels[_channel],\n            \"User not subscribed to channel\"\n        );\n        // Emit an event to trigger the off-chain service to send the latest feed via email\n        emit LatestFeedRequested(msg.sender, _channel);\n    }\n}\n",
  "sourcePath": "/media/shivendra323/34A0FBEBA0FBB20A/project2024/blockchain/Blat/client/contracts/blat.sol",
  "compiler": {
    "name": "solc",
    "version": "0.8.0+commit.c7dfd78e.Emscripten.clang"
  },
  "schemaVersion": "3.4.16",
  "updatedAt": "2024-04-24T16:35:36.269Z",
  "networkType": "ethereum",
  "devdoc": {
    "kind": "dev",
    "methods": {},
    "version": 1
  },
  "userdoc": {
    "kind": "user",
    "methods": {},
    "version": 1
  }
}